{
  "contractName": "Asset",
  "abi": [
    {
      "inputs": [
        {
          "internalType": "address",
          "name": "_owner",
          "type": "address"
        },
        {
          "internalType": "address",
          "name": "_imx",
          "type": "address"
        }
      ],
      "stateMutability": "nonpayable",
      "type": "constructor"
    },
    {
      "anonymous": false,
      "inputs": [
        {
          "indexed": true,
          "internalType": "address",
          "name": "owner",
          "type": "address"
        },
        {
          "indexed": true,
          "internalType": "address",
          "name": "approved",
          "type": "address"
        },
        {
          "indexed": true,
          "internalType": "uint256",
          "name": "tokenId",
          "type": "uint256"
        }
      ],
      "name": "Approval",
      "type": "event"
    },
    {
      "anonymous": false,
      "inputs": [
        {
          "indexed": true,
          "internalType": "address",
          "name": "owner",
          "type": "address"
        },
        {
          "indexed": true,
          "internalType": "address",
          "name": "operator",
          "type": "address"
        },
        {
          "indexed": false,
          "internalType": "bool",
          "name": "approved",
          "type": "bool"
        }
      ],
      "name": "ApprovalForAll",
      "type": "event"
    },
    {
      "anonymous": false,
      "inputs": [
        {
          "indexed": false,
          "internalType": "address",
          "name": "to",
          "type": "address"
        },
        {
          "indexed": false,
          "internalType": "uint256",
          "name": "id",
          "type": "uint256"
        },
        {
          "indexed": false,
          "internalType": "bytes",
          "name": "blueprint",
          "type": "bytes"
        }
      ],
      "name": "AssetMinted",
      "type": "event"
    },
    {
      "anonymous": false,
      "inputs": [
        {
          "indexed": true,
          "internalType": "address",
          "name": "previousOwner",
          "type": "address"
        },
        {
          "indexed": true,
          "internalType": "address",
          "name": "newOwner",
          "type": "address"
        }
      ],
      "name": "OwnershipTransferred",
      "type": "event"
    },
    {
      "anonymous": false,
      "inputs": [
        {
          "indexed": true,
          "internalType": "address",
          "name": "from",
          "type": "address"
        },
        {
          "indexed": true,
          "internalType": "address",
          "name": "to",
          "type": "address"
        },
        {
          "indexed": true,
          "internalType": "uint256",
          "name": "tokenId",
          "type": "uint256"
        }
      ],
      "name": "Transfer",
      "type": "event"
    },
    {
      "inputs": [
        {
          "internalType": "address",
          "name": "to",
          "type": "address"
        },
        {
          "internalType": "uint256",
          "name": "tokenId",
          "type": "uint256"
        }
      ],
      "name": "approve",
      "outputs": [],
      "stateMutability": "nonpayable",
      "type": "function"
    },
    {
      "inputs": [
        {
          "internalType": "address",
          "name": "owner",
          "type": "address"
        }
      ],
      "name": "balanceOf",
      "outputs": [
        {
          "internalType": "uint256",
          "name": "",
          "type": "uint256"
        }
      ],
      "stateMutability": "view",
      "type": "function",
      "constant": true
    },
    {
      "inputs": [
        {
          "internalType": "address",
          "name": "",
          "type": "address"
        }
      ],
      "name": "balances",
      "outputs": [
        {
          "internalType": "uint256",
          "name": "",
          "type": "uint256"
        }
      ],
      "stateMutability": "view",
      "type": "function",
      "constant": true
    },
    {
      "inputs": [
        {
          "internalType": "uint256",
          "name": "",
          "type": "uint256"
        }
      ],
      "name": "blueprints",
      "outputs": [
        {
          "internalType": "bytes",
          "name": "",
          "type": "bytes"
        }
      ],
      "stateMutability": "view",
      "type": "function",
      "constant": true
    },
    {
      "inputs": [
        {
          "internalType": "uint256",
          "name": "tokenId",
          "type": "uint256"
        }
      ],
      "name": "getApproved",
      "outputs": [
        {
          "internalType": "address",
          "name": "",
          "type": "address"
        }
      ],
      "stateMutability": "view",
      "type": "function",
      "constant": true
    },
    {
      "inputs": [],
      "name": "imx",
      "outputs": [
        {
          "internalType": "address",
          "name": "",
          "type": "address"
        }
      ],
      "stateMutability": "view",
      "type": "function",
      "constant": true
    },
    {
      "inputs": [
        {
          "internalType": "address",
          "name": "owner",
          "type": "address"
        },
        {
          "internalType": "address",
          "name": "operator",
          "type": "address"
        }
      ],
      "name": "isApprovedForAll",
      "outputs": [
        {
          "internalType": "bool",
          "name": "",
          "type": "bool"
        }
      ],
      "stateMutability": "view",
      "type": "function",
      "constant": true
    },
    {
      "inputs": [
        {
          "internalType": "address",
          "name": "user",
          "type": "address"
        },
        {
          "internalType": "uint256",
          "name": "quantity",
          "type": "uint256"
        },
        {
          "internalType": "bytes",
          "name": "mintingBlob",
          "type": "bytes"
        }
      ],
      "name": "mintFor",
      "outputs": [],
      "stateMutability": "nonpayable",
      "type": "function"
    },
    {
      "inputs": [],
      "name": "name",
      "outputs": [
        {
          "internalType": "string",
          "name": "",
          "type": "string"
        }
      ],
      "stateMutability": "view",
      "type": "function",
      "constant": true
    },
    {
      "inputs": [],
      "name": "owner",
      "outputs": [
        {
          "internalType": "address",
          "name": "",
          "type": "address"
        }
      ],
      "stateMutability": "view",
      "type": "function",
      "constant": true
    },
    {
      "inputs": [
        {
          "internalType": "uint256",
          "name": "tokenId",
          "type": "uint256"
        }
      ],
      "name": "ownerOf",
      "outputs": [
        {
          "internalType": "address",
          "name": "",
          "type": "address"
        }
      ],
      "stateMutability": "view",
      "type": "function",
      "constant": true
    },
    {
      "inputs": [],
      "name": "preSaleCost",
      "outputs": [
        {
          "internalType": "uint256",
          "name": "",
          "type": "uint256"
        }
      ],
      "stateMutability": "view",
      "type": "function",
      "constant": true
    },
    {
      "inputs": [],
      "name": "renounceOwnership",
      "outputs": [],
      "stateMutability": "nonpayable",
      "type": "function"
    },
    {
      "inputs": [
        {
          "internalType": "address",
          "name": "from",
          "type": "address"
        },
        {
          "internalType": "address",
          "name": "to",
          "type": "address"
        },
        {
          "internalType": "uint256",
          "name": "tokenId",
          "type": "uint256"
        }
      ],
      "name": "safeTransferFrom",
      "outputs": [],
      "stateMutability": "nonpayable",
      "type": "function"
    },
    {
      "inputs": [
        {
          "internalType": "address",
          "name": "from",
          "type": "address"
        },
        {
          "internalType": "address",
          "name": "to",
          "type": "address"
        },
        {
          "internalType": "uint256",
          "name": "tokenId",
          "type": "uint256"
        },
        {
          "internalType": "bytes",
          "name": "_data",
          "type": "bytes"
        }
      ],
      "name": "safeTransferFrom",
      "outputs": [],
      "stateMutability": "nonpayable",
      "type": "function"
    },
    {
      "inputs": [
        {
          "internalType": "address",
          "name": "operator",
          "type": "address"
        },
        {
          "internalType": "bool",
          "name": "approved",
          "type": "bool"
        }
      ],
      "name": "setApprovalForAll",
      "outputs": [],
      "stateMutability": "nonpayable",
      "type": "function"
    },
    {
      "inputs": [
        {
          "internalType": "bytes4",
          "name": "interfaceId",
          "type": "bytes4"
        }
      ],
      "name": "supportsInterface",
      "outputs": [
        {
          "internalType": "bool",
          "name": "",
          "type": "bool"
        }
      ],
      "stateMutability": "view",
      "type": "function",
      "constant": true
    },
    {
      "inputs": [],
      "name": "symbol",
      "outputs": [
        {
          "internalType": "string",
          "name": "",
          "type": "string"
        }
      ],
      "stateMutability": "view",
      "type": "function",
      "constant": true
    },
    {
      "inputs": [],
      "name": "tokenCount",
      "outputs": [
        {
          "internalType": "uint256",
          "name": "",
          "type": "uint256"
        }
      ],
      "stateMutability": "view",
      "type": "function",
      "constant": true
    },
    {
      "inputs": [
        {
          "internalType": "uint256",
          "name": "tokenId",
          "type": "uint256"
        }
      ],
      "name": "tokenURI",
      "outputs": [
        {
          "internalType": "string",
          "name": "",
          "type": "string"
        }
      ],
      "stateMutability": "view",
      "type": "function",
      "constant": true
    },
    {
      "inputs": [],
      "name": "totalSupply",
      "outputs": [
        {
          "internalType": "uint256",
          "name": "",
          "type": "uint256"
        }
      ],
      "stateMutability": "view",
      "type": "function",
      "constant": true
    },
    {
      "inputs": [
        {
          "internalType": "address",
          "name": "from",
          "type": "address"
        },
        {
          "internalType": "address",
          "name": "to",
          "type": "address"
        },
        {
          "internalType": "uint256",
          "name": "tokenId",
          "type": "uint256"
        }
      ],
      "name": "transferFrom",
      "outputs": [],
      "stateMutability": "nonpayable",
      "type": "function"
    },
    {
      "inputs": [
        {
          "internalType": "address",
          "name": "newOwner",
          "type": "address"
        }
      ],
      "name": "transferOwnership",
      "outputs": [],
      "stateMutability": "nonpayable",
      "type": "function"
    },
    {
      "inputs": [
        {
          "internalType": "address",
          "name": "user",
          "type": "address"
        },
        {
          "internalType": "string",
          "name": "blueprint",
          "type": "string"
        }
      ],
      "name": "mintToken",
      "outputs": [],
      "stateMutability": "nonpayable",
      "type": "function"
    },
    {
      "inputs": [
        {
          "internalType": "string",
          "name": "blueprint",
          "type": "string"
        }
      ],
      "name": "presaleBuy",
      "outputs": [],
      "stateMutability": "payable",
      "type": "function",
      "payable": true
    }
  ],
  "bytecode": "0x6080604052612710600a5566d529ae9e860000600b556000600c553480156200002757600080fd5b50604051620042033803806200420383398181016040528101906200004d9190620004b0565b81816040518060400160405280600981526020017f494d584b61696a757a00000000000000000000000000000000000000000000008152506040518060400160405280600681526020017f4b41494a555a0000000000000000000000000000000000000000000000000000815250620000db620000cf620001de60201b60201c565b620001e660201b60201c565b8160019080519060200190620000f3929190620003e9565b5080600290805190602001906200010c929190620003e9565b50505080600760006101000a81548173ffffffffffffffffffffffffffffffffffffffff021916908373ffffffffffffffffffffffffffffffffffffffff160217905550600073ffffffffffffffffffffffffffffffffffffffff168273ffffffffffffffffffffffffffffffffffffffff161415620001c3576040517f08c379a0000000000000000000000000000000000000000000000000000000008152600401620001ba906200058e565b60405180910390fd5b620001d482620002aa60201b60201c565b505050506200073c565b600033905090565b60008060009054906101000a900473ffffffffffffffffffffffffffffffffffffffff169050816000806101000a81548173ffffffffffffffffffffffffffffffffffffffff021916908373ffffffffffffffffffffffffffffffffffffffff1602179055508173ffffffffffffffffffffffffffffffffffffffff168173ffffffffffffffffffffffffffffffffffffffff167f8be0079c531659141344cd1fd0a4f28419497f9722a3daafe3b4186f6b6457e060405160405180910390a35050565b620002ba620001de60201b60201c565b73ffffffffffffffffffffffffffffffffffffffff16620002e0620003c060201b60201c565b73ffffffffffffffffffffffffffffffffffffffff161462000339576040517f08c379a00000000000000000000000000000000000000000000000000000000081526004016200033090620005b0565b60405180910390fd5b600073ffffffffffffffffffffffffffffffffffffffff168173ffffffffffffffffffffffffffffffffffffffff161415620003ac576040517f08c379a0000000000000000000000000000000000000000000000000000000008152600401620003a3906200056c565b60405180910390fd5b620003bd81620001e660201b60201c565b50565b60008060009054906101000a900473ffffffffffffffffffffffffffffffffffffffff16905090565b828054620003f79062000617565b90600052602060002090601f0160209004810192826200041b576000855562000467565b82601f106200043657805160ff191683800117855562000467565b8280016001018555821562000467579182015b828111156200046657825182559160200191906001019062000449565b5b5090506200047691906200047a565b5090565b5b80821115620004955760008160009055506001016200047b565b5090565b600081519050620004aa8162000722565b92915050565b60008060408385031215620004ca57620004c96200067c565b5b6000620004da8582860162000499565b9250506020620004ed8582860162000499565b9150509250929050565b600062000506602683620005d2565b9150620005138262000681565b604082019050919050565b60006200052d601783620005d2565b91506200053a82620006d0565b602082019050919050565b600062000554602083620005d2565b91506200056182620006f9565b602082019050919050565b600060208201905081810360008301526200058781620004f7565b9050919050565b60006020820190508181036000830152620005a9816200051e565b9050919050565b60006020820190508181036000830152620005cb8162000545565b9050919050565b600082825260208201905092915050565b6000620005f082620005f7565b9050919050565b600073ffffffffffffffffffffffffffffffffffffffff82169050919050565b600060028204905060018216806200063057607f821691505b602082108114156200064757620006466200064d565b5b50919050565b7f4e487b7100000000000000000000000000000000000000000000000000000000600052602260045260246000fd5b600080fd5b7f4f776e61626c653a206e6577206f776e657220697320746865207a65726f206160008201527f6464726573730000000000000000000000000000000000000000000000000000602082015250565b7f4f776e6572206d757374206e6f7420626520656d707479000000000000000000600082015250565b7f4f776e61626c653a2063616c6c6572206973206e6f7420746865206f776e6572600082015250565b6200072d81620005e3565b81146200073957600080fd5b50565b613ab7806200074c6000396000f3fe6080604052600436106101665760003560e01c806366bf33be116100d15780639f181b5e1161008a578063c87b56dd11610064578063c87b56dd1461052d578063cc9ff9c61461056a578063e985e9c514610595578063f2fde38b146105d257610166565b80639f181b5e146104b0578063a22cb465146104db578063b88d4fde1461050457610166565b806366bf33be146103ad57806370a08231146103ea578063715018a6146104275780638da5cb5b1461043e57806395d89b411461046957806398db86431461049457610166565b806319ee6e3f1161012357806319ee6e3f1461028f57806323b872dd146102b857806327e235e3146102e15780633d02d0c91461031e57806342842e0e146103475780636352211e1461037057610166565b806301ffc9a71461016b57806306fdde03146101a8578063081812fc146101d3578063095ea7b3146102105780630f08025f1461023957806318160ddd14610264575b600080fd5b34801561017757600080fd5b50610192600480360381019061018d919061280a565b6105fb565b60405161019f9190612d44565b60405180910390f35b3480156101b457600080fd5b506101bd6106dd565b6040516101ca9190612d81565b60405180910390f35b3480156101df57600080fd5b506101fa60048036038101906101f591906128ad565b61076f565b6040516102079190612c9f565b60405180910390f35b34801561021c57600080fd5b5061023760048036038101906102329190612756565b6107f4565b005b34801561024557600080fd5b5061024e61090c565b60405161025b9190612c9f565b60405180910390f35b34801561027057600080fd5b50610279610932565b6040516102869190613003565b60405180910390f35b34801561029b57600080fd5b506102b660048036038101906102b19190612796565b610938565b005b3480156102c457600080fd5b506102df60048036038101906102da91906125e4565b610a92565b005b3480156102ed57600080fd5b5061030860048036038101906103039190612577565b610af2565b6040516103159190613003565b60405180910390f35b34801561032a57600080fd5b50610345600480360381019061034091906126fa565b610b0a565b005b34801561035357600080fd5b5061036e600480360381019061036991906125e4565b610b33565b005b34801561037c57600080fd5b50610397600480360381019061039291906128ad565b610b53565b6040516103a49190612c9f565b60405180910390f35b3480156103b957600080fd5b506103d460048036038101906103cf91906128ad565b610c05565b6040516103e19190612d5f565b60405180910390f35b3480156103f657600080fd5b50610411600480360381019061040c9190612577565b610ca5565b60405161041e9190613003565b60405180910390f35b34801561043357600080fd5b5061043c610d5d565b005b34801561044a57600080fd5b50610453610de5565b6040516104609190612c9f565b60405180910390f35b34801561047557600080fd5b5061047e610e0e565b60405161048b9190612d81565b60405180910390f35b6104ae60048036038101906104a99190612864565b610ea0565b005b3480156104bc57600080fd5b506104c5610f9e565b6040516104d29190613003565b60405180910390f35b3480156104e757600080fd5b5061050260048036038101906104fd91906126ba565b610fa4565b005b34801561051057600080fd5b5061052b60048036038101906105269190612637565b611125565b005b34801561053957600080fd5b50610554600480360381019061054f91906128ad565b611187565b6040516105619190612d81565b60405180910390f35b34801561057657600080fd5b5061057f61122e565b60405161058c9190613003565b60405180910390f35b3480156105a157600080fd5b506105bc60048036038101906105b791906125a4565b611234565b6040516105c99190612d44565b60405180910390f35b3480156105de57600080fd5b506105f960048036038101906105f49190612577565b6112c8565b005b60007f80ac58cd000000000000000000000000000000000000000000000000000000007bffffffffffffffffffffffffffffffffffffffffffffffffffffffff1916827bffffffffffffffffffffffffffffffffffffffffffffffffffffffff191614806106c657507f5b5e139f000000000000000000000000000000000000000000000000000000007bffffffffffffffffffffffffffffffffffffffffffffffffffffffff1916827bffffffffffffffffffffffffffffffffffffffffffffffffffffffff1916145b806106d657506106d5826113c0565b5b9050919050565b6060600180546106ec906132f9565b80601f0160208091040260200160405190810160405280929190818152602001828054610718906132f9565b80156107655780601f1061073a57610100808354040283529160200191610765565b820191906000526020600020905b81548152906001019060200180831161074857829003601f168201915b5050505050905090565b600061077a8261142a565b6107b9576040517f08c379a00000000000000000000000000000000000000000000000000000000081526004016107b090612f23565b60405180910390fd5b6005600083815260200190815260200160002060009054906101000a900473ffffffffffffffffffffffffffffffffffffffff169050919050565b60006107ff82610b53565b90508073ffffffffffffffffffffffffffffffffffffffff168373ffffffffffffffffffffffffffffffffffffffff161415610870576040517f08c379a000000000000000000000000000000000000000000000000000000000815260040161086790612fa3565b60405180910390fd5b8073ffffffffffffffffffffffffffffffffffffffff1661088f611496565b73ffffffffffffffffffffffffffffffffffffffff1614806108be57506108bd816108b8611496565b611234565b5b6108fd576040517f08c379a00000000000000000000000000000000000000000000000000000000081526004016108f490612ea3565b60405180910390fd5b610907838361149e565b505050565b600760009054906101000a900473ffffffffffffffffffffffffffffffffffffffff1681565b600a5481565b600760009054906101000a900473ffffffffffffffffffffffffffffffffffffffff1673ffffffffffffffffffffffffffffffffffffffff163373ffffffffffffffffffffffffffffffffffffffff16146109c8576040517f08c379a00000000000000000000000000000000000000000000000000000000081526004016109bf90612da3565b60405180910390fd5b60018314610a0b576040517f08c379a0000000000000000000000000000000000000000000000000000000008152600401610a0290612e63565b60405180910390fd5b600080610a188484611557565b91509150610a2786838361176c565b80600860008481526020019081526020016000209080519060200190610a4e929190612335565b507f31e594f6b36b98ec520a91cbbba7b8724b1cec27393f86d8f0f6aa6084db0aaf868383604051610a8293929190612d06565b60405180910390a1505050505050565b610aa3610a9d611496565b826117de565b610ae2576040517f08c379a0000000000000000000000000000000000000000000000000000000008152600401610ad990612fe3565b60405180910390fd5b610aed8383836118bc565b505050565b60096020528060005260406000206000915090505481565b600c6000815480929190610b1d9061335c565b9190505550610b2f82600c548361176c565b5050565b610b4e83838360405180602001604052806000815250611125565b505050565b6000806003600084815260200190815260200160002060009054906101000a900473ffffffffffffffffffffffffffffffffffffffff169050600073ffffffffffffffffffffffffffffffffffffffff168173ffffffffffffffffffffffffffffffffffffffff161415610bfc576040517f08c379a0000000000000000000000000000000000000000000000000000000008152600401610bf390612ee3565b60405180910390fd5b80915050919050565b60086020528060005260406000206000915090508054610c24906132f9565b80601f0160208091040260200160405190810160405280929190818152602001828054610c50906132f9565b8015610c9d5780601f10610c7257610100808354040283529160200191610c9d565b820191906000526020600020905b815481529060010190602001808311610c8057829003601f168201915b505050505081565b60008073ffffffffffffffffffffffffffffffffffffffff168273ffffffffffffffffffffffffffffffffffffffff161415610d16576040517f08c379a0000000000000000000000000000000000000000000000000000000008152600401610d0d90612ec3565b60405180910390fd5b600460008373ffffffffffffffffffffffffffffffffffffffff1673ffffffffffffffffffffffffffffffffffffffff168152602001908152602001600020549050919050565b610d65611496565b73ffffffffffffffffffffffffffffffffffffffff16610d83610de5565b73ffffffffffffffffffffffffffffffffffffffff1614610dd9576040517f08c379a0000000000000000000000000000000000000000000000000000000008152600401610dd090612f43565b60405180910390fd5b610de36000611b18565b565b60008060009054906101000a900473ffffffffffffffffffffffffffffffffffffffff16905090565b606060028054610e1d906132f9565b80601f0160208091040260200160405190810160405280929190818152602001828054610e49906132f9565b8015610e965780601f10610e6b57610100808354040283529160200191610e96565b820191906000526020600020905b815481529060010190602001808311610e7957829003601f168201915b5050505050905090565b600a54600c5410610eb057600080fd5b600b543414610ebe57600080fd5b610ec83382610b0a565b600960003373ffffffffffffffffffffffffffffffffffffffff1673ffffffffffffffffffffffffffffffffffffffff1681526020019081526020016000206000815480929190610f189061335c565b91905055506000610f27610de5565b73ffffffffffffffffffffffffffffffffffffffff1634604051610f4a90612c8a565b60006040518083038185875af1925050503d8060008114610f87576040519150601f19603f3d011682016040523d82523d6000602084013e610f8c565b606091505b5050905080610f9a57600080fd5b5050565b600c5481565b610fac611496565b73ffffffffffffffffffffffffffffffffffffffff168273ffffffffffffffffffffffffffffffffffffffff16141561101a576040517f08c379a000000000000000000000000000000000000000000000000000000000815260040161101190612e43565b60405180910390fd5b8060066000611027611496565b73ffffffffffffffffffffffffffffffffffffffff1673ffffffffffffffffffffffffffffffffffffffff16815260200190815260200160002060008473ffffffffffffffffffffffffffffffffffffffff1673ffffffffffffffffffffffffffffffffffffffff16815260200190815260200160002060006101000a81548160ff0219169083151502179055508173ffffffffffffffffffffffffffffffffffffffff166110d4611496565b73ffffffffffffffffffffffffffffffffffffffff167f17307eab39ab6107e8899845ad3d59bd9653f200f220920489ca2b5937696c31836040516111199190612d44565b60405180910390a35050565b611136611130611496565b836117de565b611175576040517f08c379a000000000000000000000000000000000000000000000000000000000815260040161116c90612fe3565b60405180910390fd5b61118184848484611bdc565b50505050565b60606111928261142a565b6111d1576040517f08c379a00000000000000000000000000000000000000000000000000000000081526004016111c890612f83565b60405180910390fd5b60006111db611c38565b905060008151116111fb5760405180602001604052806000815250611226565b8061120584611c4f565b604051602001611216929190612c66565b6040516020818303038152906040525b915050919050565b600b5481565b6000600660008473ffffffffffffffffffffffffffffffffffffffff1673ffffffffffffffffffffffffffffffffffffffff16815260200190815260200160002060008373ffffffffffffffffffffffffffffffffffffffff1673ffffffffffffffffffffffffffffffffffffffff16815260200190815260200160002060009054906101000a900460ff16905092915050565b6112d0611496565b73ffffffffffffffffffffffffffffffffffffffff166112ee610de5565b73ffffffffffffffffffffffffffffffffffffffff1614611344576040517f08c379a000000000000000000000000000000000000000000000000000000000815260040161133b90612f43565b60405180910390fd5b600073ffffffffffffffffffffffffffffffffffffffff168173ffffffffffffffffffffffffffffffffffffffff1614156113b4576040517f08c379a00000000000000000000000000000000000000000000000000000000081526004016113ab90612de3565b60405180910390fd5b6113bd81611b18565b50565b60007f01ffc9a7000000000000000000000000000000000000000000000000000000007bffffffffffffffffffffffffffffffffffffffffffffffffffffffff1916827bffffffffffffffffffffffffffffffffffffffffffffffffffffffff1916149050919050565b60008073ffffffffffffffffffffffffffffffffffffffff166003600084815260200190815260200160002060009054906101000a900473ffffffffffffffffffffffffffffffffffffffff1673ffffffffffffffffffffffffffffffffffffffff1614159050919050565b600033905090565b816005600083815260200190815260200160002060006101000a81548173ffffffffffffffffffffffffffffffffffffffff021916908373ffffffffffffffffffffffffffffffffffffffff160217905550808273ffffffffffffffffffffffffffffffffffffffff1661151183610b53565b73ffffffffffffffffffffffffffffffffffffffff167f8c5be1e5ebec7d5bd14f71427d1e84f3dd0314c0f7b2291e5b200ac8c7c3b92560405160405180910390a45050565b6000606060006115e285858080601f016020809104026020016040519081016040528093929190818152602001838380828437600081840152601f19601f820116905080830192505050505050506040518060400160405280600181526020017f3a000000000000000000000000000000000000000000000000000000000000008152506000611db0565b90506000811215611628576040517f08c379a000000000000000000000000000000000000000000000000000000000815260040161161f90612fc3565b60405180910390fd5b6000611694868660019060018661163f919061320f565b9261164c939291906130f3565b8080601f016020809104026020016040519081016040528093929190818152602001838380828437600081840152601f19601f82011690508083019250505050505050611ea8565b90506000600383888890506116a9919061320f565b6116b3919061320f565b905060008114156116db57816040518060200160405280600081525094509450505050611765565b36600088886002876116ed919061312e565b9060018c8c90506116fe919061320f565b9261170b939291906130f3565b9150915083828281818080601f016020809104026020016040519081016040528093929190818152602001838380828437600081840152601f19601f82011690508083019250505050505050905090509650965050505050505b9250929050565b6117768383611f3f565b8060086000848152602001908152602001600020908051906020019061179d929190612335565b507f31e594f6b36b98ec520a91cbbba7b8724b1cec27393f86d8f0f6aa6084db0aaf8383836040516117d193929190612d06565b60405180910390a1505050565b60006117e98261142a565b611828576040517f08c379a000000000000000000000000000000000000000000000000000000000815260040161181f90612e83565b60405180910390fd5b600061183383610b53565b90508073ffffffffffffffffffffffffffffffffffffffff168473ffffffffffffffffffffffffffffffffffffffff1614806118a257508373ffffffffffffffffffffffffffffffffffffffff1661188a8461076f565b73ffffffffffffffffffffffffffffffffffffffff16145b806118b357506118b28185611234565b5b91505092915050565b8273ffffffffffffffffffffffffffffffffffffffff166118dc82610b53565b73ffffffffffffffffffffffffffffffffffffffff1614611932576040517f08c379a000000000000000000000000000000000000000000000000000000000815260040161192990612f63565b60405180910390fd5b600073ffffffffffffffffffffffffffffffffffffffff168273ffffffffffffffffffffffffffffffffffffffff1614156119a2576040517f08c379a000000000000000000000000000000000000000000000000000000000815260040161199990612e23565b60405180910390fd5b6119ad838383611f5d565b6119b860008261149e565b6001600460008573ffffffffffffffffffffffffffffffffffffffff1673ffffffffffffffffffffffffffffffffffffffff1681526020019081526020016000206000828254611a08919061320f565b925050819055506001600460008473ffffffffffffffffffffffffffffffffffffffff1673ffffffffffffffffffffffffffffffffffffffff1681526020019081526020016000206000828254611a5f919061312e565b92505081905550816003600083815260200190815260200160002060006101000a81548173ffffffffffffffffffffffffffffffffffffffff021916908373ffffffffffffffffffffffffffffffffffffffff160217905550808273ffffffffffffffffffffffffffffffffffffffff168473ffffffffffffffffffffffffffffffffffffffff167fddf252ad1be2c89b69c2b068fc378daa952ba7f163c4a11628f55a4df523b3ef60405160405180910390a4505050565b60008060009054906101000a900473ffffffffffffffffffffffffffffffffffffffff169050816000806101000a81548173ffffffffffffffffffffffffffffffffffffffff021916908373ffffffffffffffffffffffffffffffffffffffff1602179055508173ffffffffffffffffffffffffffffffffffffffff168173ffffffffffffffffffffffffffffffffffffffff167f8be0079c531659141344cd1fd0a4f28419497f9722a3daafe3b4186f6b6457e060405160405180910390a35050565b611be78484846118bc565b611bf384848484611f62565b611c32576040517f08c379a0000000000000000000000000000000000000000000000000000000008152600401611c2990612dc3565b60405180910390fd5b50505050565b606060405180602001604052806000815250905090565b60606000821415611c97576040518060400160405280600181526020017f30000000000000000000000000000000000000000000000000000000000000008152509050611dab565b600082905060005b60008214611cc9578080611cb29061335c565b915050600a82611cc29190613184565b9150611c9f565b60008167ffffffffffffffff811115611ce557611ce46134c1565b5b6040519080825280601f01601f191660200182016040528015611d175781602001600182028036833780820191505090505b5090505b60008514611da457600182611d30919061320f565b9150600a85611d3f91906133a5565b6030611d4b919061312e565b60f81b818381518110611d6157611d60613492565b5b60200101907effffffffffffffffffffffffffffffffffffffffffffffffffffffffffffff1916908160001a905350600a85611d9d9190613184565b9450611d1b565b8093505050505b919050565b6000808390506001815114611dc857611dc76133d6565b5b60008390505b8551811015611e7b5781600081518110611deb57611dea613492565b5b602001015160f81c60f81b7effffffffffffffffffffffffffffffffffffffffffffffffffffffffffffff1916868281518110611e2b57611e2a613492565b5b602001015160f81c60f81b7effffffffffffffffffffffffffffffffffffffffffffffffffffffffffffff19161415611e68578092505050611ea1565b8080611e739061335c565b915050611dce565b507fffffffffffffffffffffffffffffffffffffffffffffffffffffffffffffffff9150505b9392505050565b6000806000905060005b8351811015611f35576000848281518110611ed057611ecf613492565b5b602001015160f81c60f81b60f81c60ff16905060308110158015611ef5575060398111155b15611f2157603081611f07919061320f565b600a84611f1491906131b5565b611f1e919061312e565b92505b508080611f2d9061335c565b915050611eb2565b5080915050919050565b611f598282604051806020016040528060008152506120f9565b5050565b505050565b6000611f838473ffffffffffffffffffffffffffffffffffffffff16612154565b156120ec578373ffffffffffffffffffffffffffffffffffffffff1663150b7a02611fac611496565b8786866040518563ffffffff1660e01b8152600401611fce9493929190612cba565b602060405180830381600087803b158015611fe857600080fd5b505af192505050801561201957506040513d601f19601f820116820180604052508101906120169190612837565b60015b61209c573d8060008114612049576040519150601f19603f3d011682016040523d82523d6000602084013e61204e565b606091505b50600081511415612094576040517f08c379a000000000000000000000000000000000000000000000000000000000815260040161208b90612dc3565b60405180910390fd5b805181602001fd5b63150b7a0260e01b7bffffffffffffffffffffffffffffffffffffffffffffffffffffffff1916817bffffffffffffffffffffffffffffffffffffffffffffffffffffffff1916149150506120f1565b600190505b949350505050565b6121038383612167565b6121106000848484611f62565b61214f576040517f08c379a000000000000000000000000000000000000000000000000000000000815260040161214690612dc3565b60405180910390fd5b505050565b600080823b905060008111915050919050565b600073ffffffffffffffffffffffffffffffffffffffff168273ffffffffffffffffffffffffffffffffffffffff1614156121d7576040517f08c379a00000000000000000000000000000000000000000000000000000000081526004016121ce90612f03565b60405180910390fd5b6121e08161142a565b15612220576040517f08c379a000000000000000000000000000000000000000000000000000000000815260040161221790612e03565b60405180910390fd5b61222c60008383611f5d565b6001600460008473ffffffffffffffffffffffffffffffffffffffff1673ffffffffffffffffffffffffffffffffffffffff168152602001908152602001600020600082825461227c919061312e565b92505081905550816003600083815260200190815260200160002060006101000a81548173ffffffffffffffffffffffffffffffffffffffff021916908373ffffffffffffffffffffffffffffffffffffffff160217905550808273ffffffffffffffffffffffffffffffffffffffff16600073ffffffffffffffffffffffffffffffffffffffff167fddf252ad1be2c89b69c2b068fc378daa952ba7f163c4a11628f55a4df523b3ef60405160405180910390a45050565b828054612341906132f9565b90600052602060002090601f01602090048101928261236357600085556123aa565b82601f1061237c57805160ff19168380011785556123aa565b828001600101855582156123aa579182015b828111156123a957825182559160200191906001019061238e565b5b5090506123b791906123bb565b5090565b5b808211156123d45760008160009055506001016123bc565b5090565b60006123eb6123e684613043565b61301e565b90508281526020810184848401111561240757612406613509565b5b6124128482856132b7565b509392505050565b600061242d61242884613074565b61301e565b90508281526020810184848401111561244957612448613509565b5b6124548482856132b7565b509392505050565b60008135905061246b81613a25565b92915050565b60008135905061248081613a3c565b92915050565b60008135905061249581613a53565b92915050565b6000815190506124aa81613a53565b92915050565b60008083601f8401126124c6576124c56134f5565b5b8235905067ffffffffffffffff8111156124e3576124e26134f0565b5b6020830191508360018202830111156124ff576124fe613504565b5b9250929050565b600082601f83011261251b5761251a6134f5565b5b813561252b8482602086016123d8565b91505092915050565b600082601f830112612549576125486134f5565b5b813561255984826020860161241a565b91505092915050565b60008135905061257181613a6a565b92915050565b60006020828403121561258d5761258c613513565b5b600061259b8482850161245c565b91505092915050565b600080604083850312156125bb576125ba613513565b5b60006125c98582860161245c565b92505060206125da8582860161245c565b9150509250929050565b6000806000606084860312156125fd576125fc613513565b5b600061260b8682870161245c565b935050602061261c8682870161245c565b925050604061262d86828701612562565b9150509250925092565b6000806000806080858703121561265157612650613513565b5b600061265f8782880161245c565b94505060206126708782880161245c565b935050604061268187828801612562565b925050606085013567ffffffffffffffff8111156126a2576126a161350e565b5b6126ae87828801612506565b91505092959194509250565b600080604083850312156126d1576126d0613513565b5b60006126df8582860161245c565b92505060206126f085828601612471565b9150509250929050565b6000806040838503121561271157612710613513565b5b600061271f8582860161245c565b925050602083013567ffffffffffffffff8111156127405761273f61350e565b5b61274c85828601612534565b9150509250929050565b6000806040838503121561276d5761276c613513565b5b600061277b8582860161245c565b925050602061278c85828601612562565b9150509250929050565b600080600080606085870312156127b0576127af613513565b5b60006127be8782880161245c565b94505060206127cf87828801612562565b935050604085013567ffffffffffffffff8111156127f0576127ef61350e565b5b6127fc878288016124b0565b925092505092959194509250565b6000602082840312156128205761281f613513565b5b600061282e84828501612486565b91505092915050565b60006020828403121561284d5761284c613513565b5b600061285b8482850161249b565b91505092915050565b60006020828403121561287a57612879613513565b5b600082013567ffffffffffffffff8111156128985761289761350e565b5b6128a484828501612534565b91505092915050565b6000602082840312156128c3576128c2613513565b5b60006128d184828501612562565b91505092915050565b6128e381613243565b82525050565b6128f281613255565b82525050565b6000612903826130a5565b61290d81856130bb565b935061291d8185602086016132c6565b61292681613518565b840191505092915050565b600061293c826130b0565b61294681856130d7565b93506129568185602086016132c6565b61295f81613518565b840191505092915050565b6000612975826130b0565b61297f81856130e8565b935061298f8185602086016132c6565b80840191505092915050565b60006129a86022836130d7565b91506129b382613529565b604082019050919050565b60006129cb6032836130d7565b91506129d682613578565b604082019050919050565b60006129ee6026836130d7565b91506129f9826135c7565b604082019050919050565b6000612a11601c836130d7565b9150612a1c82613616565b602082019050919050565b6000612a346024836130d7565b9150612a3f8261363f565b604082019050919050565b6000612a576019836130d7565b9150612a628261368e565b602082019050919050565b6000612a7a601a836130d7565b9150612a85826136b7565b602082019050919050565b6000612a9d602c836130d7565b9150612aa8826136e0565b604082019050919050565b6000612ac06038836130d7565b9150612acb8261372f565b604082019050919050565b6000612ae3602a836130d7565b9150612aee8261377e565b604082019050919050565b6000612b066029836130d7565b9150612b11826137cd565b604082019050919050565b6000612b296020836130d7565b9150612b348261381c565b602082019050919050565b6000612b4c602c836130d7565b9150612b5782613845565b604082019050919050565b6000612b6f6020836130d7565b9150612b7a82613894565b602082019050919050565b6000612b926029836130d7565b9150612b9d826138bd565b604082019050919050565b6000612bb5602f836130d7565b9150612bc08261390c565b604082019050919050565b6000612bd86021836130d7565b9150612be38261395b565b604082019050919050565b6000612bfb6014836130d7565b9150612c06826139aa565b602082019050919050565b6000612c1e6000836130cc565b9150612c29826139d3565b600082019050919050565b6000612c416031836130d7565b9150612c4c826139d6565b604082019050919050565b612c60816132ad565b82525050565b6000612c72828561296a565b9150612c7e828461296a565b91508190509392505050565b6000612c9582612c11565b9150819050919050565b6000602082019050612cb460008301846128da565b92915050565b6000608082019050612ccf60008301876128da565b612cdc60208301866128da565b612ce96040830185612c57565b8181036060830152612cfb81846128f8565b905095945050505050565b6000606082019050612d1b60008301866128da565b612d286020830185612c57565b8181036040830152612d3a81846128f8565b9050949350505050565b6000602082019050612d5960008301846128e9565b92915050565b60006020820190508181036000830152612d7981846128f8565b905092915050565b60006020820190508181036000830152612d9b8184612931565b905092915050565b60006020820190508181036000830152612dbc8161299b565b9050919050565b60006020820190508181036000830152612ddc816129be565b9050919050565b60006020820190508181036000830152612dfc816129e1565b9050919050565b60006020820190508181036000830152612e1c81612a04565b9050919050565b60006020820190508181036000830152612e3c81612a27565b9050919050565b60006020820190508181036000830152612e5c81612a4a565b9050919050565b60006020820190508181036000830152612e7c81612a6d565b9050919050565b60006020820190508181036000830152612e9c81612a90565b9050919050565b60006020820190508181036000830152612ebc81612ab3565b9050919050565b60006020820190508181036000830152612edc81612ad6565b9050919050565b60006020820190508181036000830152612efc81612af9565b9050919050565b60006020820190508181036000830152612f1c81612b1c565b9050919050565b60006020820190508181036000830152612f3c81612b3f565b9050919050565b60006020820190508181036000830152612f5c81612b62565b9050919050565b60006020820190508181036000830152612f7c81612b85565b9050919050565b60006020820190508181036000830152612f9c81612ba8565b9050919050565b60006020820190508181036000830152612fbc81612bcb565b9050919050565b60006020820190508181036000830152612fdc81612bee565b9050919050565b60006020820190508181036000830152612ffc81612c34565b9050919050565b60006020820190506130186000830184612c57565b92915050565b6000613028613039565b9050613034828261332b565b919050565b6000604051905090565b600067ffffffffffffffff82111561305e5761305d6134c1565b5b61306782613518565b9050602081019050919050565b600067ffffffffffffffff82111561308f5761308e6134c1565b5b61309882613518565b9050602081019050919050565b600081519050919050565b600081519050919050565b600082825260208201905092915050565b600081905092915050565b600082825260208201905092915050565b600081905092915050565b60008085851115613107576131066134ff565b5b83861115613118576131176134fa565b5b6001850283019150848603905094509492505050565b6000613139826132ad565b9150613144836132ad565b9250827fffffffffffffffffffffffffffffffffffffffffffffffffffffffffffffffff0382111561317957613178613405565b5b828201905092915050565b600061318f826132ad565b915061319a836132ad565b9250826131aa576131a9613434565b5b828204905092915050565b60006131c0826132ad565b91506131cb836132ad565b9250817fffffffffffffffffffffffffffffffffffffffffffffffffffffffffffffffff048311821515161561320457613203613405565b5b828202905092915050565b600061321a826132ad565b9150613225836132ad565b92508282101561323857613237613405565b5b828203905092915050565b600061324e8261328d565b9050919050565b60008115159050919050565b60007fffffffff0000000000000000000000000000000000000000000000000000000082169050919050565b600073ffffffffffffffffffffffffffffffffffffffff82169050919050565b6000819050919050565b82818337600083830152505050565b60005b838110156132e45780820151818401526020810190506132c9565b838111156132f3576000848401525b50505050565b6000600282049050600182168061331157607f821691505b6020821081141561332557613324613463565b5b50919050565b61333482613518565b810181811067ffffffffffffffff82111715613353576133526134c1565b5b80604052505050565b6000613367826132ad565b91507fffffffffffffffffffffffffffffffffffffffffffffffffffffffffffffffff82141561339a57613399613405565b5b600182019050919050565b60006133b0826132ad565b91506133bb836132ad565b9250826133cb576133ca613434565b5b828206905092915050565b7f4e487b7100000000000000000000000000000000000000000000000000000000600052600160045260246000fd5b7f4e487b7100000000000000000000000000000000000000000000000000000000600052601160045260246000fd5b7f4e487b7100000000000000000000000000000000000000000000000000000000600052601260045260246000fd5b7f4e487b7100000000000000000000000000000000000000000000000000000000600052602260045260246000fd5b7f4e487b7100000000000000000000000000000000000000000000000000000000600052603260045260246000fd5b7f4e487b7100000000000000000000000000000000000000000000000000000000600052604160045260246000fd5b600080fd5b600080fd5b600080fd5b600080fd5b600080fd5b600080fd5b600080fd5b600080fd5b6000601f19601f8301169050919050565b7f46756e6374696f6e2063616e206f6e6c792062652063616c6c6564206279204960008201527f4d58000000000000000000000000000000000000000000000000000000000000602082015250565b7f4552433732313a207472616e7366657220746f206e6f6e20455243373231526560008201527f63656976657220696d706c656d656e7465720000000000000000000000000000602082015250565b7f4f776e61626c653a206e6577206f776e657220697320746865207a65726f206160008201527f6464726573730000000000000000000000000000000000000000000000000000602082015250565b7f4552433732313a20746f6b656e20616c7265616479206d696e74656400000000600082015250565b7f4552433732313a207472616e7366657220746f20746865207a65726f2061646460008201527f7265737300000000000000000000000000000000000000000000000000000000602082015250565b7f4552433732313a20617070726f766520746f2063616c6c657200000000000000600082015250565b7f4d696e7461626c653a20696e76616c6964207175616e74697479000000000000600082015250565b7f4552433732313a206f70657261746f7220717565727920666f72206e6f6e657860008201527f697374656e7420746f6b656e0000000000000000000000000000000000000000602082015250565b7f4552433732313a20617070726f76652063616c6c6572206973206e6f74206f7760008201527f6e6572206e6f7220617070726f76656420666f7220616c6c0000000000000000602082015250565b7f4552433732313a2062616c616e636520717565727920666f7220746865207a6560008201527f726f206164647265737300000000000000000000000000000000000000000000602082015250565b7f4552433732313a206f776e657220717565727920666f72206e6f6e657869737460008201527f656e7420746f6b656e0000000000000000000000000000000000000000000000602082015250565b7f4552433732313a206d696e7420746f20746865207a65726f2061646472657373600082015250565b7f4552433732313a20617070726f76656420717565727920666f72206e6f6e657860008201527f697374656e7420746f6b656e0000000000000000000000000000000000000000602082015250565b7f4f776e61626c653a2063616c6c6572206973206e6f7420746865206f776e6572600082015250565b7f4552433732313a207472616e73666572206f6620746f6b656e2074686174206960008201527f73206e6f74206f776e0000000000000000000000000000000000000000000000602082015250565b7f4552433732314d657461646174613a2055524920717565727920666f72206e6f60008201527f6e6578697374656e7420746f6b656e0000000000000000000000000000000000602082015250565b7f4552433732313a20617070726f76616c20746f2063757272656e74206f776e6560008201527f7200000000000000000000000000000000000000000000000000000000000000602082015250565b7f536570617261746f72206d757374206578697374000000000000000000000000600082015250565b50565b7f4552433732313a207472616e736665722063616c6c6572206973206e6f74206f60008201527f776e6572206e6f7220617070726f766564000000000000000000000000000000602082015250565b613a2e81613243565b8114613a3957600080fd5b50565b613a4581613255565b8114613a5057600080fd5b50565b613a5c81613261565b8114613a6757600080fd5b50565b613a73816132ad565b8114613a7e57600080fd5b5056fea2646970667358221220d3176976ec236c5fc8a1c226291bbeefdf340436eaaa6c5c11cc0f0f0e296c8f64736f6c63430008070033",
  "immutableReferences": {},
  "source": "// SPDX-License-Identifier: MIT\r\npragma solidity ^0.8.4;\r\n\r\nimport \"@openzeppelin/contracts/token/ERC721/ERC721.sol\";\r\nimport \"@openzeppelin/contracts/access/Ownable.sol\";\r\n//import \"./Mintable.sol\";\r\nimport \"@imtbl/imx-contracts/contracts/Mintable.sol\";\r\n\r\ncontract Asset is Ownable, ERC721, Mintable {\r\n    \r\n    // mapping(address => bool) public hasMintedInPreSale;\r\n    mapping(address => uint) public balances;\r\n    // mapping(uint => bytes) public metadata;\r\n    \r\n    // bool public preSaleEnded;\r\n    uint public totalSupply = 10000;\r\n    // uint public preSaleSupply = 1500;\r\n    uint public preSaleCost = 0.07 ether;\r\n    // uint public mainSaleCost = 0.05 ether;\r\n    // uint public maxMintAmount = 3;\r\n    // bytes public notRevealedUri;\r\n    uint public tokenCount = 0;\r\n    \r\n    constructor(\r\n        address _owner,\r\n        address _imx\r\n    ) ERC721(\"IMXKaijuz\", \"KAIJUZ\") Mintable(_owner, _imx) {\r\n        // preSaleEnded = false;\r\n        // notRevealedUri = _notRevealedUri;\r\n    }\r\n\r\n    function _mintFor(\r\n        address user,\r\n        uint256 id,\r\n        bytes memory _blueprint\r\n    ) internal override {\r\n        _safeMint(user, id);\r\n        blueprints[id] = _blueprint;\r\n        emit AssetMinted(user, id, _blueprint);\r\n    }\r\n    \r\n    function mintToken(address user, string memory blueprint) public {\r\n        tokenCount++;\r\n        _mintFor(user, tokenCount, bytes(blueprint));\r\n    }\r\n    \r\n    // function endPreSale() public onlyOwner{\r\n    //     preSaleEnded = true;\r\n    // }\r\n    \r\n    // function revealNFT(uint _id) public onlyOwner() {\r\n    //     blueprints[_id] = metadata[_id];\r\n    // }\r\n    \r\n    // function withdrawAmount() public onlyOwner(){\r\n    //     (bool success, ) = payable(owner()).call{value: address(this).balance}(\"\");\r\n    //     require(success);\r\n    // }\r\n    \r\n    function presaleBuy(string memory blueprint) public payable{\r\n        require(tokenCount < totalSupply);\r\n       \r\n        require(msg.value == preSaleCost);\r\n        mintToken(msg.sender, blueprint);\r\n        balances[msg.sender]++;\r\n       \r\n        (bool success, ) = payable(owner()).call{value: msg.value}(\"\");\r\n        require(success);\r\n    }\r\n    \r\n    // function mainSaleBuy(bytes memory blueprint) public payable{\r\n    //     require(preSaleEnded && tokenCount < totalSupply);\r\n    //     require(balances[msg.sender] < maxMintAmount && msg.value == mainSaleCost);\r\n    //     _mintFor(msg.sender, ++tokenCount, blueprint);\r\n    //     balances[msg.sender]++;\r\n    //     (bool success, ) = payable(owner()).call{value: msg.value}(\"\");\r\n    //     require(success);\r\n    // }\r\n}",
  "sourcePath": "C:\\Users\\sj931\\OneDrive\\Desktop\\imxkaijuzfinal\\blockchain\\contracts\\Imx.sol",
  "compiler": {
    "name": "solc",
    "version": "0.8.7+commit.e28d00a7.Emscripten.clang"
  },
  "schemaVersion": "3.4.3",
  "updatedAt": "2021-11-17T08:52:30.203Z",
  "networkType": "ethereum",
  "devdoc": {
    "kind": "dev",
    "methods": {
      "approve(address,uint256)": {
        "details": "See {IERC721-approve}."
      },
      "balanceOf(address)": {
        "details": "See {IERC721-balanceOf}."
      },
      "getApproved(uint256)": {
        "details": "See {IERC721-getApproved}."
      },
      "isApprovedForAll(address,address)": {
        "details": "See {IERC721-isApprovedForAll}."
      },
      "name()": {
        "details": "See {IERC721Metadata-name}."
      },
      "owner()": {
        "details": "Returns the address of the current owner."
      },
      "ownerOf(uint256)": {
        "details": "See {IERC721-ownerOf}."
      },
      "renounceOwnership()": {
        "details": "Leaves the contract without owner. It will not be possible to call `onlyOwner` functions anymore. Can only be called by the current owner. NOTE: Renouncing ownership will leave the contract without an owner, thereby removing any functionality that is only available to the owner."
      },
      "safeTransferFrom(address,address,uint256)": {
        "details": "See {IERC721-safeTransferFrom}."
      },
      "safeTransferFrom(address,address,uint256,bytes)": {
        "details": "See {IERC721-safeTransferFrom}."
      },
      "setApprovalForAll(address,bool)": {
        "details": "See {IERC721-setApprovalForAll}."
      },
      "supportsInterface(bytes4)": {
        "details": "See {IERC165-supportsInterface}."
      },
      "symbol()": {
        "details": "See {IERC721Metadata-symbol}."
      },
      "tokenURI(uint256)": {
        "details": "See {IERC721Metadata-tokenURI}."
      },
      "transferFrom(address,address,uint256)": {
        "details": "See {IERC721-transferFrom}."
      },
      "transferOwnership(address)": {
        "details": "Transfers ownership of the contract to a new account (`newOwner`). Can only be called by the current owner."
      }
    },
    "version": 1
  },
  "userdoc": {
    "kind": "user",
    "methods": {},
    "version": 1
  }
}